:020000040000FA
:100000000C946A000C9492000C9492000C94920050
:100010000C9492000C9492000C9492000C94920018
:100020000C9492000C9492000C9492000C9476081C
:100030000C9492000C9492000C9492000C949200F8
:100040000C942C080C9492000C94FA070C94D4078E
:100050000C9492000C9492000C9492000C949200D8
:100060000C9492000C9492000000000024002700E1
:100070002A0000000000250028002B0000000000DE
:1000800023002600290004040404040404040202DA
:100090000202020203030303030301020408102007
:1000A0004080010204081020010204081020000012
:1000B0000008000201000003040700000000000027
:1000C00000000E10101F1B1B1F000E11111F1B1B09
:1000D0001F00320911241FBECFEFD8E0DEBFCDBF15
:1000E00011E0A0E0B1E0E4E5FFE102C005900D926F
:1000F000A83FB107D9F723E0A8EFB1E001C01D92F6
:10010000A435B207E1F710E0CAE6D0E004C02197B9
:10011000FE010E94A70DC936D107C9F70E94110A36
:100120000C94A80F0C9400008F929F92AF92BF92F4
:10013000FF920F931F93CF93DF93F0904D032BE02B
:100140002F1508F44CC020914F0308E512E0021B64
:10015000110927FD1395000F111F000F111F20918A
:100160004E03C8E8D0E0C21BD10927FDD395CC0FC0
:10017000DD1FCC0FDD1F4E010D2E000CAA08BB08A1
:100180009801012E000C440B550B281939094A0916
:100190005B09DC010E942B0D24EB30E040E050E0D5
:1001A0000E94010D820E931EA41EB51E8C169D0684
:1001B0002CF0E801801691060CF4E4012297CC0F94
:1001C000DD1F2FB7F8948F2D90E0FC01EE0FFF1F7D
:1001D000E80FF91FE056FD4FD283C1832FBFDF9197
:1001E000CF911F910F91FF90BF90AF909F908F90F4
:1001F000089596E0899FD0011124AA53BD4F90968F
:100200007C936E935F9791E091969C939197E09188
:100210003303F091340390913203992339F03097EE
:1002200051F0811108C08091E2020994309719F0D1
:100230005C968C91FACF0895CF92DF92EF92FF9265
:100240000F931F9396E0899FF0011124EA53FD4F0D
:1002500011A2278D30A12130310551F178F02230E3
:10026000310509F451C02330310509F452C01F9102
:100270000F91FF90EF90DF90CF9008956623B9F330
:1002800061E070E00E94F9002FB7F8948091FE01C0
:100290009091FF01A0910002B09101022FBF8093C5
:1002A0001E0390931F03A0932003B0932103DFCF7D
:1002B0009FB7F894C090FE01D090FF01E09000023B
:1002C000F09001029FBF00911E0310911F03209127
:1002D000200330912103C01AD10AE20AF30A0091E7
:1002E00030031091310330E020E00C151D052E0580
:1002F0003F0550F462E070E01F910F91FF90EF9086
:10030000DF90CF900C94F9006111B1CF63E070E001
:10031000F3CF70E060E0F0CFAF92BF92CF92DF9268
:10032000EF92FF920F931F93CF93DF936C017B01AA
:100330008B01040F151FEB015E01AE18BF08C0173B
:10034000D10759F06991D601ED91FC910190F081AE
:10035000E02DC6010995892B79F7C501DF91CF9171
:100360001F910F91FF90EF90DF90CF90BF90AF90D3
:100370000895FC01538D448D252F30E0842F90E0AB
:10038000821B930B541710F0CF9608950197089590
:10039000FC01918D828D981761F0A28DAE0FBF2F59
:1003A000B11D5D968C91928D9F5F9F73928F90E0AF
:1003B00008958FEF9FEF0895FC01918D828D98171E
:1003C00031F0828DE80FF11D858D90E008958FEF5B
:1003D0009FEF0895FC01918D228D892F90E0805C24
:1003E0009F4F821B91098F739927089583E092E0B4
:1003F0000E94EA0121E0892B09F420E0822F089570
:1004000080E090E0892B29F00E94F60181110C9484
:1004100000000895FC01A48DA80FB92FB11DA35AA7
:10042000BF4F2C91848D90E001968F739927848F14
:10043000A689B7892C93A089B1898C918370806437
:100440008C93938D848D981306C00288F389E02DD8
:1004500080818F7D80830895EF92FF920F931F9389
:10046000CF93DF93EC0181E0888F9B8D8C8D981367
:100470001AC0E889F989808185FF15C09FB7F89473
:10048000EE89FF896083E889F989808183708064BF
:1004900080839FBF81E090E0DF91CF911F910F910A
:1004A000FF90EF900895F62E0B8D10E00F5F1F4F19
:1004B0000F731127E02E8C8D8E110CC00FB607FC28
:1004C000FACFE889F989808185FFF5CFCE010E94B6
:1004D0000A02F1CFEB8DEC0FFD2FF11DE35AFF4F18
:1004E000F0829FB7F8940B8FEA89FB898081806244
:1004F000CFCFCF93DF93EC01888D8823B9F0AA8901
:10050000BB89E889F9898C9185FD03C0808186FDCE
:100510000DC00FB607FCF7CF8C9185FFF2CF80811D
:1005200085FFEDCFCE010E940A02E9CFDF91CF9186
:100530000895833081F028F4813099F08230A9F059
:1005400008958730A9F08830C9F08430B1F48091E3
:1005500080008F7D03C0809180008F778093800022
:10056000089584B58F7784BD089584B58F7DFBCFC2
:100570008091B0008F778093B00008958091B00093
:100580008F7DF9CFCF93DF93282F30E0F901E2552B
:10059000FF4F8491F901E656FF4FD491F901EA57D4
:1005A000FF4FC491CC23A1F081110E949902EC2F3E
:1005B000F0E0EE0FFF1FE458FF4FA591B491EC91CE
:1005C000ED2381E090E009F480E0DF91CF91089580
:1005D00080E090E0FACF862F0C94C2021F93CF9355
:1005E000DF93282F30E0F901E255FF4F8491F901A4
:1005F000E656FF4FD491F901EA57FF4FC491CC233F
:10060000A9F0162F81110E949902EC2FF0E0EE0F55
:10061000FF1FEE58FF4FA591B4918FB7F894EC915E
:10062000111108C0D095DE23DC938FBFDF91CF91ED
:100630001F910895DE2BF8CF862F642F0C94EE02C5
:10064000CF93DF9390E0FC01E656FF4F24918A5749
:100650009F4FFC0184918823C9F090E0880F991F77
:10066000FC01E859FF4FA591B491FC01EE58FF4FF2
:10067000C591D49161110DC09FB7F8948C912095CC
:1006800082238C938881282328839FBFDF91CF9179
:100690000895623051F49FB7F8943C91822F809571
:1006A00083238C93E8812E2BEFCF8FB7F894EC91B6
:1006B0002E2B2C938FBFEACF862F642F0C94200310
:1006C0006F927F928F929F92AF92BF92CF92DF9262
:1006D000EF92FF920F931F93CF93DF9381E080936C
:1006E00032038FB7F8944091FE015091FF01609161
:1006F0000002709101028FBF809122039091230329
:10070000A0912403B0912503481B590B6A0B7B0B66
:1007100080912E0390912F03B0E0A0E084179507FD
:10072000A607B70708F01DC1C0E080912C03C817C9
:1007300060F4E0912803F0912903EC0FF11D62E0D1
:1007400080810E942003CF5FF0CF712C812C912CEF
:100750005401839480912D03781608F05FC0072D13
:1007600010E0E0912A03F0912B03E00FF11F61E00C
:1007700080810E942003E0912A03F0912B03E00F77
:10078000F11F60E080810E94EE02D501C401072CB8
:1007900004C0880F991FAA1FBB1F0A94D2F76C01CF
:1007A0007C01E094F094612C80912C036816F8F49D
:1007B000C62DD0E0E0912803F0912903EC0FFD1F36
:1007C00080810E94C2022496CC0FDD1FCA53DD4FE8
:1007D000892B41F4888199818C299D29998388836B
:1007E0006394E2CF888199818E219F21F7CFE09198
:1007F0002A03F0912B03E00FF11F61E080810E943A
:10080000EE0280912A0390912B03080F191F60E0DC
:10081000F80180810E94200373949CCFC6ECD2E043
:10082000FE018FEF9FEF278D30A1232B21F4148E33
:10083000968F858F11A2369623E0E230F20799F762
:10084000F12C96E0D92E80912C03F81608F050C0B8
:10085000E12C0F2D10E0000F111F02531D4F2091AE
:100860002D03E21608F042C0F801608171810E2C60
:1008700002C0769567950A94E2F7F29E90011124E2
:100880002E0D311DE6ECF2E080E0458D568D2417EB
:10089000350709F46AC08F5F36968A30B1F760FF7A
:1008A00023C0E6ECF2E090E080E0448D411117C0F7
:1008B000E0912603F0912703E20FF31F4081D89EB9
:1008C000F001D99EF00D1124EA53FD4F448F368F6D
:1008D000258F10A2178E61E00E941C0105C00196B1
:1008E00036968A30910509F7E394B9CFF394ABCFEC
:1008F00080E099A19111892F2696F3E0C230DF079D
:10090000C1F79FB7F8944091FE015091FF016091AB
:100910000002709101029FBF409322035093230372
:1009200060932403709325038823D9F08091E70214
:100930008823B9F08091E5029091E602019789F44D
:100940008091E202DF91CF911F910F91FF90EF9084
:10095000DF90CF90BF90AF909F908F907F906F90DF
:1009600008951092320380E0EDCF6170B5CF3FB7AC
:10097000F8948091FA019091FB01A091FC01B09153
:10098000FD0126B5A89B05C02F3F19F00196A11DBA
:10099000B11D3FBFBA2FA92F982F8827BC01CD01C9
:1009A000620F711D811D911D42E0660F771F881F28
:1009B000991F4A95D1F708958F929F92AF92BF9257
:1009C000CF92DF92EF92FF926B017C010E94B704FD
:1009D0004B015C01C114D104E104F104B9F00E949F
:1009E000B704681979098A099B09683E7340810533
:1009F000910580F321E0C21AD108E108F10888EEE0
:100A0000880E83E0981EA11CB11CE4CFFF90EF90EC
:100A1000DF90CF90BF90AF909F908F9008950895F2
:100A200090E080E008950F931F93CF938C01DC0139
:100A300014966C9181E090E00E94F30CC0E08C2F42
:100A400090E0F801248135818217930790F401909A
:100A5000F081E02D309751F410920202E2E0F2E0D2
:100A6000608102960E94F30CCF5FE9CFE80FF91F77
:100A7000F7CFCF911F910F910895EF92FF920F93AF
:100A80001F93CF93DF938C0181E090E00E94EB0CE9
:100A90008F3F49F41092C50260E090E080E00E9430
:100AA000F30C81E008C0D8011496ED90FC908E15EF
:100AB0001F0441F080E0DF91CF911F910F91FF90D3
:100AC000EF900895D0E0C0E0CE15DF0518F7CE0115
:100AD00002960E94EB0C90E0D801ED91FC913097CA
:100AE00069F410920202E2E0F2E021962081022EE7
:100AF000000C330B8217930739F3DCCFEC0FFD1F8B
:100B0000F4CF84E190E00E94940081E08093C502DC
:100B100061E090E080E00C94F30CFC010190002077
:100B2000E9F73197AF01481B590BBC0185E393E00E
:100B30000C948C01FC0180819181009711F00C9440
:100B4000490E0895CF93DF93EC0160E08E810E94FF
:100B5000EE0261E08E810E94EE0260E08E810E94D2
:100B6000EE028BE891E00197F1F7DF91CF910895C4
:100B7000CF92DF92EF92FF920F931F93CF93DF9369
:100B80006C017C0187E0E80EF11CD0E0C0E0062F8C
:100B900010E0B8010C2E02C0759567950A94E2F733
:100BA0006170F70181917F010E94EE022196C430AD
:100BB000D10579F7C601DF91CF911F910F91FF9079
:100BC000EF90DF90CF900C94A205CF92DF92EF923E
:100BD000FF920F931F93CF93DF93EC01F62E642FB8
:100BE0008C810E94EE028D818F3F19F060E00E949F
:100BF000EE020F2D10E08F8584FF25C06E0187E087
:100C0000C80ED11CF12CE12CB8010E2C02C0759538
:100C100067950A94E2F76170F60181916F010E9475
:100C2000EE02FFEFEF1AFF0A88E0E816F10461F721
:100C3000CE01DF91CF911F910F91FF90EF90DF9048
:100C4000CF900C94A205B80184E0759567958A95BC
:100C5000E1F7CE010E94B8056F2DCE01DF91CF9153
:100C60001F910F91FF90EF90DF90CF900C94B805FB
:100C700040E0682F85E393E00C94E50581E00E9455
:100C800038068BE39FE10197F1F70895CF93DF9347
:100C9000823029F4909144039860909344038093A8
:100CA00048031092490380E480934A0380E18093D3
:100CB0004B0380E580934C0361E0809139030E94EF
:100CC000200380913A038F3F19F061E00E942003D6
:100CD00061E080913B030E942003C5E3D3E09E01C5
:100CE000255333408091440384FD0BC084E090E0A1
:100CF00021962817390744F461E08E810E94200371
:100D0000EECF88E090E0F4CF8BE39DE00197F1F720
:100D100060E0809139030E94EE0260E080913B0325
:100D20000E94EE0280913A038F3F19F060E00E942A
:100D3000EE028091440384FD34C063E085E393E0D8
:100D40000E94B805CBE4D6E4CE010197F1F763E049
:100D500085E393E00E94B8052197F1F763E085E30E
:100D600093E00E94B80583E592E00197F1F762E015
:100D700085E393E00E94B8058091440380620E945D
:100D8000380684E0809345038CE00E9438060E9478
:100D90003E0682E08093460386E0DF91CF910C947B
:100DA000380680620E9438068BE496E40197F1F7DA
:100DB0008091440380620E94380683E592E00197A7
:100DC000F1F78091440380620E943806D5CF90915C
:100DD0004803691710F06FEF690FE62FF0E0EB5C46
:100DE000FC4F9489890F80680C943806CF92DF926B
:100DF000EF92FF92CF936C0161E082E00E94E706E0
:100E000086E491E00E948D0561E083E00E94E706A0
:100E1000CAE00D2C000CEE08FF08C701B6010E94C5
:100E2000DC0483E591E00E948D05C150B1F7CF91BC
:100E3000FF90EF90DF90CF90089541E00E94E5058C
:100E400081E090E008950F931F93CF93DF93EC011F
:100E500088819981009759F02A813B8126173707AD
:100E600030F081E0DF91CF911F910F9108958B01B8
:100E70006F5F7F4F0E94D20E009759F0998388834D
:100E80001B830A832C813D81232B59F7FC0110829F
:100E9000E8CF80E0E7CFEF92FF920F931F93CF93BD
:100EA000DF93EC017B018A01BA010E9423072881AC
:100EB0003981811114C02115310519F0C9010E9431
:100EC000490E198218821D821C821B821A82CE0151
:100ED000DF91CF911F910F91FF90EF9008951D83A7
:100EE0000C83B701C9010E94A10FF1CFEF92FF92CD
:100EF0000F931F93CF93DF9300D0CDB7DEB78C0154
:100F000061E085E00E94E70685E591E00E948D059D
:100F100061E086E00E94E706F801118210821382E8
:100F200012821582148250E040E064E871E0C8014A
:100F30000E944B07F80184819581049758F50E941F
:100F40006003F82E80ED8F0D8A30A0F741E06AE251
:100F500085E393E00E94E505F9821A82F801E480B6
:100F6000F580FFEFEF1AFF0AB701C8010E942307BF
:100F7000882301F3F8012081318184819581BE01AC
:100F80006F5F7F4F820F931F0E94A10FF801F582C0
:100F9000E482D0CFC8010F900F90DF91CF911F91C5
:100FA0000F91FF90EF9008951F920F920FB60F923E
:100FB00011242F933F934F935F936F937F938F935E
:100FC0009F93AF93BF93EF93FF9383E092E00E94D0
:100FD0000A02FF91EF91BF91AF919F918F917F9105
:100FE0006F915F914F913F912F910F900FBE0F9096
:100FF0001F9018951F920F920FB60F9211242F93E6
:101000008F939F93EF93FF93E0911302F09114025B
:101010008081E0911902F0911A0282FD1BC090813B
:1010200080911C028F5F8F7320911D02821741F007
:10103000E0911C02F0E0ED5FFD4F958F80931C0264
:10104000FF91EF919F918F912F910F900FBE0F9075
:101050001F9018958081F4CF1F920F920FB60F92B8
:1010600011242F933F938F939F93AF93BF938091BE
:10107000FE019091FF01A0910002B0910102309118
:10108000F90123E0230F2D3758F50196A11DB11D5D
:101090002093F9018093FE019093FF01A093000239
:1010A000B09301028091FA019091FB01A091FC01A3
:1010B000B091FD010196A11DB11D8093FA0190939D
:1010C000FB01A093FC01B093FD01BF91AF919F91F3
:1010D0008F913F912F910F900FBE0F901F901895F9
:1010E00026E8230F0296A11DB11DD2CF1F920F92A9
:1010F0000FB60F9211242F933F934F935F936F93EB
:101100007F938F939F93AF93BF93CF93DF93EF938F
:10111000FF938091F801C091C402D0E087FF24C002
:1011200010928500109284008091F8018F5F809367
:10113000F8018091F801082E000C990B8C179D077F
:1011400024F48091F8018C30C4F180918400909156
:101150008500049680349C4908F47AC0809184000C
:1011600090918500049676C08091F801082E000CBD
:10117000990B8C179D07C4F6E091F8018E2FEE0FA6
:10118000990BFC01EE0FFF1FE80FF91FE056FD4F12
:10119000808186FFC9CFE091F8018E2FEE0F990B69
:1011A000FC01EE0FFF1FE80FF91FE056FD4F808195
:1011B00060E08F730E94EE02B7CF209184003091DF
:1011C0008500E091F8018E2FEE0F990BFC01EE0FD8
:1011D000FF1FE80FF91FE056FD4F81819281820FBA
:1011E000931F9093890080938800E091F8018E2FDF
:1011F000EE0F990BFC01EE0FFF1FE80FF91FE056F1
:10120000FD4F808186FF11C0E091F8018E2FEE0F17
:10121000990BFC01EE0FFF1FE80FF91FE056FD4F81
:10122000808161E08F730E94EE02FF91EF91DF9168
:10123000CF91BF91AF919F918F917F916F915F916E
:101240004F913F912F910F900FBE0F901F901895C7
:1012500080E49CE990938900809388008FEF8093CD
:10126000F801E3CF109206021092050288EE93E097
:10127000A0E0B0E08093070290930802A0930902D7
:10128000B0930A0282E291E09093040280930302F9
:1012900085EC90E09093100280930F0284EC90E034
:1012A000909312028093110280EC90E090931402CC
:1012B0008093130281EC90E09093160280931502C4
:1012C00082EC90E0909318028093170286EC90E0F5
:1012D00090931A028093190210921C0210921D0220
:1012E00010921E0210921F028091C4028C3008F0EE
:1012F00094C091E0980F9093C40280934D0390E0C6
:10130000FC01EE0FFF1FE80FF91FE056FD4F88EBC1
:101310009BE09283818310923803109237038EE30F
:1013200091E090933603809335038CE080933903EA
:101330008FEF80933A038BE080933B038AE08093A6
:101340003C0389E080933D0388E080933E0387E07F
:1013500080933F0310924003109241031092420386
:10136000109243031092440381E00E9446061092BB
:10137000C8021092CC021092CB021092CD0284E3EC
:1013800091E09093C7028093C602E2EEF2E08EE114
:1013900093E0108214821382158236968E179F076F
:1013A000C1F784E091E0909329038093280380E0C3
:1013B00091E090932B0380932A0384E080932C0385
:1013C00080932D0388E091E0909327038093260378
:1013D0008AE090E090932F0380932E0384EF91E0B6
:1013E00090933103809330031092340310923303AF
:1013F00010922203109223031092240310922503CB
:101400001092320390E080E00E94EB0C91E081307A
:1014100009F090E09093C50208958FEF80934D03FB
:101420007ACFCF93DF93CDB7DEB764970FB6F8943A
:10143000DEBF0FBECDBF789484B5826084BD84B515
:10144000816084BD85B5826085BD85B5816085BDBF
:1014500080916E00816080936E0010928100809177
:1014600081008260809381008091810081608093FF
:101470008100809180008160809380008091B10024
:1014800084608093B1008091B00081608093B0004F
:1014900080917A00846080937A0080917A008260E3
:1014A00080937A0080917A00816080937A008091A5
:1014B0007A00806880937A001092C10082E00E94D6
:1014C000460648E050E06AEC70E0CE0101960E94CA
:1014D000E20C80E40E943806CE0101966C018E0178
:1014E000075F1F4F7C01F70161917F0185E393E066
:1014F0000E941D07E016F106B1F748E050E062ECEB
:1015000070E0CE0101960E94E20C88E40E94380649
:10151000F60161916F0185E393E00E941D07EC14D1
:10152000FD04B1F780914D038C3008F051C061E0AB
:1015300086E00E94200380914D03282F30E0F901BE
:10154000EE0FFF1FE20FF31FE056FD4F9081907CDE
:101550009660908310924E0310924F032CE0622FFE
:101560000E949B0D829FB001112430E020E0AB016E
:10157000420F531FFA01EE0FFF1FE40FF51FE05655
:10158000FD4F908196FD16C02F5F3F4F2C303105E7
:1015900071F781110FC01092800082E0809381006A
:1015A0001092850010928400B19A80916F00826041
:1015B00080936F00E0914D038E2F90E0FC01EE0FC1
:1015C000FF1FE80FF91FE056FD4F80818064808384
:1015D000E0911302F091140282E08083E0910F0207
:1015E000F09110021082E0911102F091120280E15C
:1015F000808310921B02E0911702F091180286E09E
:101600008083E0911502F0911602808180618083D1
:10161000E0911502F0911602808188608083E0914C
:101620001502F0911602808180688083E091150296
:10163000F091160280818F7D80838091C50288237E
:1016400009F440C00E94810560E084E00E94E70642
:101650008CE591E00E948D0568EE73E080E090E0FB
:101660000E94DC0462E080E00E94E7061A82198290
:101670001C821B821E821D8240E150E065E671E003
:10168000CE0101960E944B07F12C8F2D90E02D8109
:101690003E8182179307F0F4E981FA813097B9F41B
:1016A00010920202E2E0F2E041E0608185E393E023
:1016B0000E94E50564E670E080E090E00E94DC04B2
:1016C000F394E3CF8AE590E00E949400BDCFE80F49
:1016D000F91FEACF64EF71E080E090E00E94DC0443
:1016E000CE0101960E949A0580E0A82E80E0B82ED7
:1016F0009090C502992009F47BC00E943E0660E0EC
:1017000080E00E94E70660E085E393E00E941D0709
:1017100086E791E00E948D0560E085E393E00E94FA
:101720001D07C8010E9476071A8219821C821B823B
:101730001E821D8269857A856115710531F04D859E
:101740005E85CE0101960E944B07CE0101960E9454
:101750003D05F82ECE0101960E949A0588EC90E096
:101760000E94F606FF20A9F10E943E0660E080E09C
:101770000E94E70661E085E393E00E941D0760E0B8
:1017800084E00E94E70685E891E00E948D0560E014
:101790008FE00E94E70661E085E393E00E941D0769
:1017A00068EE73E080E090E00E94DC048AE590E05F
:1017B0000E949400C8010E949A05A114B10409F482
:1017C00097CF0E94F601882309F492CF0E9400006F
:1017D0008FCF0E943E0660E080E00E94E7068FE81F
:1017E00091E00E948D0588EE93E00E94F606E2CF1C
:1017F0000E943E0660E080E00E94E70661E085E32B
:1018000093E00E941D0760E082E00E94E7068EE9F7
:1018100091E00E948D0560E08FE00E94E70661E0A4
:1018200085E393E00E941D0781E090E00E94EB0CAD
:10183000FF24F3948F3F49F061E080E00E94E706C7
:1018400089EA91E00E948D05F12C0E9460038134A9
:1018500029F08332D1F7FF2009F46BC00E943E06C5
:1018600060E080E00E94E70688EB91E00E948D0531
:10187000CE010F960E9476070E943E0660E080E04F
:101880000E94E70688EC91E00E948D05C8010E9445
:101890007607CB88DC888D859E85C816D90609F029
:1018A00078C0EF84F88869857A85E114F104A1F0A5
:1018B0006115710509F069C0C114D104B9F0F701CF
:1018C000808190E0892B09F064C01A8219821C8201
:1018D0001B821E821D8213C06115710539F0C1146F
:1018E000D10421F0FB018081811153C01A82198239
:1018F0001C821B821E821D82E114F10431F0A601BC
:10190000B701CE0101960E944B07CE0101960E94BD
:101910001305CE0101960E949A0599249394C8015B
:101920000E949A05CE010F960E949A05992009F40B
:1019300044CF0E943E0660E085E00E94E70661E039
:1019400085E393E00E941D0783E891E00E948D05E6
:101950006EE785E393E00E941D0783E891E00E9413
:101960008D0560E085E393E00E941D0781E0809390
:10197000C50261E090E080E00E94F30C0E948105C6
:1019800084E690E00E94F60618CFC7010E94980FE7
:1019900099CF0E943E0660E081E00E94E70689ED53
:1019A00091E00E948D0561E080E00E94E70687EEED
:1019B00091E00E948D0560ED77E080E090E00E946C
:1019C000DC04ADCFFB01DC0102C005900D9241505B
:1019D0005040D8F70895F999FECF92BD81BDF89A8D
:1019E000992780B50895262FF999FECF1FBA92BD89
:1019F00081BD20BD0FB6F894FA9AF99A0FBE0196F0
:101A00000895052E97FB1EF400940E94180D57FDB3
:101A100007D00E946A0D07FC03D04EF40C94180DF9
:101A200050954095309521953F4F4F4F5F4F08950A
:101A300090958095709561957F4F8F4F9F4F08953A
:101A40000E948C0DA59F900DB49F900DA49F800DBA
:101A5000911D11240895B7FF0C94200D0E94200DB4
:101A6000821B930B08952F923F924F925F926F9239
:101A70007F928F929F92AF92BF92CF92DF92EF921E
:101A8000FF920F931F93CF93DF93CDB7DEB7CA1B9F
:101A9000DB0B0FB6F894DEBF0FBECDBF09942A88CA
:101AA000398848885F846E847D848C849B84AA8472
:101AB000B984C884DF80EE80FD800C811B81AA81FF
:101AC000B981CE0FD11D0FB6F894DEBF0FBECDBFCA
:101AD000ED010895A1E21A2EAA1BBB1BFD010DC04A
:101AE000AA1FBB1FEE1FFF1FA217B307E407F507CE
:101AF00020F0A21BB30BE40BF50B661F771F881FAA
:101B0000991F1A9469F760957095809590959B013F
:101B1000AC01BD01CF010895A29FB001B39FC001E8
:101B2000A39F700D811D1124911DB29F700D811D09
:101B30001124911D0895991B79E004C0991F9617EF
:101B400008F0961B881F7A95C9F780950895EE0FC7
:101B5000FF1F0590F491E02D09940F931F93CF93ED
:101B6000DF938230910510F482E090E0E09152031F
:101B7000F091530330E020E0B0E0A0E0309799F41A
:101B80002115310509F44AC0281B390B24303105D1
:101B9000D8F58A819B816115710589F1FB019383D9
:101BA0008283FE0111C04081518102811381481757
:101BB0005907E0F04817590799F4109761F0129609
:101BC0000C93129713961C933296CF01DF91CF910D
:101BD0001F910F9108950093520310935303F4CF74
:101BE0002115310551F04217530738F0A901DB01E7
:101BF0009A01BD01DF01F801C1CFEF01F9CF909348
:101C0000530380935203CDCFFE01E20FF31F819364
:101C100091932250310939832883D7CF20915003E3
:101C200030915103232B41F420911A0130911B0173
:101C300030935103209350032091180130911901E2
:101C40002115310541F42DB73EB740911C0150914B
:101C50001D01241B350BE0915003F0915103E21755
:101C6000F307A0F42E1B3F0B2817390778F0AC01BF
:101C70004E5F5F4F2417350748F04E0F5F1F50939C
:101C8000510340935003819391939FCFF0E0E0E0A4
:101C90009CCFCF93DF930097E9F0FC01329713823A
:101CA0001282A0915203B0915303ED0130E020E085
:101CB0001097A1F420813181820F931F209150034E
:101CC000309151032817390709F061C0F09351038F
:101CD000E0935003DF91CF910895EA01CE17DF071B
:101CE000E8F54A815B819E0141155105B1F7E90193
:101CF000FB83EA8349915991C40FD51FEC17FD0767
:101D000061F4808191810296840F951FE901998386
:101D10008883828193819B838A83F0E0E0E012963E
:101D20008D919C9113970097B9F52D913C91119746
:101D3000CD010296820F931F2091500330915103E1
:101D40002817390739F6309751F51092530310923E
:101D50005203B0935103A0935003BCCFD383C283EB
:101D600040815181840F951FC817D90761F44E5FD8
:101D70005F4F88819981480F591F518340838A8121
:101D80009B81938382832115310509F0B0CFF093B5
:101D90005303E09352039ECFFD01DC01C0CF1382B9
:101DA0001282D7CFB0E0A0E0E8EDFEE00C94350D54
:101DB0008C01009751F4CB010E94AD0D8C01C8013C
:101DC000CDB7DEB7E0E10C94510DFC01E60FF71F33
:101DD0009C0122503109E217F30708F49DC0D90194
:101DE000CD91DC911197C617D70798F0C530D10572
:101DF00030F3CE0104978617970708F3C61BD70B5D
:101E00002297C193D1936D937C93CF010E94490E89
:101E1000D6CF5B01AC1ABD0A4C018C0E9D1EA09161
:101E20005203B0915303512C412CF12CE12C10970B
:101E300031F580915003909151038815990509F06F
:101E40005CC04616570608F058C080911801909162
:101E50001901009741F48DB79EB740911C01509134
:101E60001D01841B950BE817F90708F055C0F09386
:101E70005103E0935003F90171836083A0CF8D91EA
:101E80009C91119712966C90129713967C901397D1
:101E9000A815B90559F56C0142E0C40ED11CCA144D
:101EA000DB0420F1AC014A195B09DA01129615979F
:101EB00080F06282738251834083D9016D937C9359
:101EC000E114F10471F0D7011396FC93EE9312978D
:101ED00076CF22968C0F9D1FF90191838083F301A9
:101EE000EFCFF0935303E093520369CF481659069E
:101EF00008F42C017D01D3019ACFCB010E94AD0DD6
:101F00007C01009749F0AE01B8010E948F0FC80113
:101F10000E94490E870153CF10E000E050CFFB0133
:101F2000DC0102C001900D9241505040D8F7089555
:101F3000FB01DC018D91019080190110D9F3990BFF
:101F40000895FB01DC0101900D920020E1F7089556
:101F5000F894FFCF11100F0E050403023132334104
:101F600034353642373839432A302344000054038D
:101F70008000000000002C028C01B9017902EA0106
:101F8000C801DC01000000005C031C03EB02000040
:101F900000001D078C0110050F055B2E2E2E2E2E26
:101FA0002E2E2E2E2E5D003D005B5F5F5F5F5D007D
:101FB00057656C636F6D65210041726475696E6F62
:101FC000536166652076312E3000205361666520AE
:101FD0004C6F636B6564212000556E6C6F636B659D
:101FE0006421004163636573732044656E696564B1
:101FF0002100202320746F206C6F636B0020204130
:10200000203D206E657720636F646500456E7465C2
:1020100072206E657720636F64653A00436F6E6669
:1020200069726D206E657720636F646500436F642D
:1020300065206D69736D6174636800536166652026
:0C2040006E6F74206C6F636B6564210090
:107E0000112484B714BE81FFF0D085E080938100F7
:107E100082E08093C00088E18093C10086E0809377
:107E2000C20080E18093C4008EE0C9D0259A86E02C
:107E300020E33CEF91E0309385002093840096BBD3
:107E4000B09BFECF1D9AA8958150A9F7CC24DD24C4
:107E500088248394B5E0AB2EA1E19A2EF3E0BF2EE7
:107E6000A2D0813461F49FD0082FAFD0023811F036
:107E7000013811F484E001C083E08DD089C08234E0
:107E800011F484E103C0853419F485E0A6D080C0E4
:107E9000853579F488D0E82EFF2485D0082F10E0AE
:107EA000102F00270E291F29000F111F8ED06801E7
:107EB0006FC0863521F484E090D080E0DECF843638
:107EC00009F040C070D06FD0082F6DD080E0C81688
:107ED00080E7D80618F4F601B7BEE895C0E0D1E017
:107EE00062D089930C17E1F7F0E0CF16F0E7DF06D8
:107EF00018F0F601B7BEE89568D007B600FCFDCFD4
:107F0000A601A0E0B1E02C9130E011968C91119780
:107F100090E0982F8827822B932B1296FA010C0160
:107F200087BEE89511244E5F5F4FF1E0A038BF0790
:107F300051F7F601A7BEE89507B600FCFDCF97BE46
:107F4000E89526C08437B1F42ED02DD0F82E2BD052
:107F50003CD0F601EF2C8F010F5F1F4F84911BD097
:107F6000EA94F801C1F70894C11CD11CFA94CF0C13
:107F7000D11C0EC0853739F428D08EE10CD085E9AC
:107F80000AD08FE07ACF813511F488E018D01DD067
:107F900080E101D065CF982F8091C00085FFFCCF94
:107FA0009093C60008958091C00087FFFCCF809118
:107FB000C00084FD01C0A8958091C6000895E0E648
:107FC000F0E098E1908380830895EDDF803219F02E
:107FD00088E0F5DFFFCF84E1DECF1F93182FE3DFCA
:107FE0001150E9F7F2DF1F91089580E0E8DFEE27F6
:047FF000FF270994CA
:027FFE00040479
:00000001FF
